:10000000F8FF02209901000035280000ED270000CC
:10001000ED270000ED270000ED270000ED27000090
:10002000ED270000ED270000ED2700003528000037
:1000300035280000ED2700006D45000071450000E7
:10004000352800003528000035280000352800003C
:10005000352800003528000035280000352800002C
:10006000352800003528000035280000352800001C
:10007000352800003528000035280000352800000C
:1000800035280000352800003528000035280000FC
:1000900035280000352800003528000035280000EC
:1000A000DD0E0000E90E00003528000035280000B4
:1000B00035280000352800003528000035280000CC
:1000C00035280000352800003528000035280000BC
:1000D00035280000352800003528000035280000AC
:1000E000352800003528000035280000352800009C
:1000F000352800003528000035280000352800008C
:10010000352800003528000035280000352800007B
:10011000352800007D370000352800003528000014
:10012000352800003528000035280000352800005B
:10013000352800003528000035280000352800004B
:1001400035280000352800008934000035280000DB
:10015000352800003528000035280000352800002B
:100160003528000035280000F50E00003528000075
:10017000352800003528000035280000352800000B
:1001800035280000352800003528000035280000FB
:100190003528000035280000584B4CF2205210B58D
:1001A0001A804DF628121A8000BF00BF02F046FBED
:1001B000534B4FF030621A60524A9A60524ADA60EA
:1001C000524B4FF470021A60514A136813F4807353
:1001D00004D150490B604FF4A85313604E4B1A786A
:1001E000110703D51A7842F008021A704B4B4C499C
:1001F0002A221A704B4A4C4B8B4204D252F8040FFD
:1002000043F8040BF8E7494B494900228B4202D2DC
:1002100043F8042BFAE74749474A002352F82300E2
:1002200041F823000133662BF8D1444B444A802126
:1002300003F8011B9342FBD1424B3E4A1A60424BEA
:100240008A221A70A3F5805324225A70A0221A70B1
:100250009A799207FCD59A79D406FCD43B4A9379D3
:1002600003F00C03082B394BF9D103221A714622F3
:100270005A719A799006FCD5344A9179334B4906E4
:10028000FBD5334A4FF08271116009215160202261
:100290001A709A7902F00C020C2AFAD12D4B2E4AD0
:1002A0001A602E4B2E4A1A6000225A60072243F829
:1002B000042C2C4AC3F80C2D62B602F0A7FD154B96
:1002C0001B68DA0705D5284802F07EFB274B284A31
:1002D0001A60284B1B785B0609D5244C244B2268F6
:1002E0009A4204D1204802F06FFB0023236002F001
:1002F000ABFA06F0A1FE02F09DF9FEE70E200540E4
:1003000030800440823F04000100002B88ED00E0B3
:1003100010D0034014D0034002D0074000E0074053
:100320006C11FF1F90830000F806FF1F7011FF1F64
:10033000D016FF1F0002FF1F0000000000E400E0D5
:1003400056E400E008ED00E00050064000400640A2
:100350004480044004800440C010050014E000E024
:10036000BFD4010000002020F4FD09621CE003401E
:10037000A5C3945A00F00740FFFFFFFFFFFFFFFFF8
:10038000FFFFFFFFFFFFFFFFFFFFFFFFFFFFFFFF7D
:10039000FFFFFFFFFFFFFFFFFFFFFFFFFFFFFFFF6D
:1003A000FFFFFFFFFFFFFFFFFFFFFFFFFFFFFFFF5D
:1003B000FFFFFFFFFFFFFFFFFFFFFFFFFFFFFFFF4D
:1003C000FFFFFFFFFFFFFFFFFFFFFFFFFFFFFFFF3D
:1003D000FFFFFFFFFFFFFFFFFFFFFFFFFFFFFFFF2D
:1003E000FFFFFFFFFFFFFFFFFFFFFFFFFFFFFFFF1D
:1003F000FFFFFFFFFFFFFFFFFFFFFFFFFFFFFFFF0D
:10040000FFFFFFFFFFFFFFFFFFFFFFFFDEF9FFFF23
:1004100010B5054C237833B9044B13B10448AFF33E
:1004200000800123237010BD7011FF1F0000000029
:100430008C830000084B10B51BB108490848AFF386
:1004400000800848036803B910BD074B002BFBD0A0
:10045000BDE81040184700BF000000007411FF1FE6
:100460008C8300006C11FF1F00000000704700BF6C
:10047000704700BF70B540220646134C002104307F
:1004800007F0CAF880250123104A86F864307265A7
:1004900021462A4606F1680002F0D4F861192A467E
:1004A00006F1E80004F5807402F0CCF80FCC06F5F4
:1004B000B4750FC50FCC0FC50FCC0FC594E80F0056
:1004C00085E80F00304670BDA07B0000000080BFB3
:1004D0002848294AF8B50468284D294F40F2EE26ED
:1004E00013783BB12B78DB0704D5036839685B1AB6
:1004F0000E2B07D8036811781B1B002937D0B3F5E2
:10050000FA6FEDD910211F4803F094FE1E4801F048
:100510005BFC1E4801F05EFA1D4800F0ADFF0021B3
:10052000392002F0FDFB05E01A4803F083FE1A486B
:1005300001F0A0FE0821194800F08EFD1E210028C0
:10054000F2D001211548164D00F020FD154B16483C
:10055000002200240421C3E9004583F824209A6284
:1005600003F068FE0C48BDE8F84001F083BEB342DA
:10057000B6D9C7E7D014FF1F3816FF1F5016FF1F4C
:10058000C816FF1FE07C0000C013FF1FB011FF1F43
:100590005813FF1FF47C00007408FF1F7814FF1F1E
:1005A0000000F0BF4814FF1F147D0000FFFFFFFF95
:1005B000F0B52DED048B724C7249734D734883B0C6
:1005C00000F06CFE2046D5E9006700F0DDFED5E9BD
:1005D00000010022002306F077FC002840F0C480D0
:1005E000D4E90867A379C5E90667002B40F0948039
:1005F000AB6A1E2B03DD664B0022C5E90023614B6D
:100600009FED647AD3ED057A5D4E5F4FF4EEC77AC5
:10061000F1EE10FAC4BF9FED607A77EEC77A12232D
:100620002B6217EE900A06F07FF99FED532B41ECF9
:10063000100BB0EE421AF0EE621A584800F03AFF82
:10064000A06AB0EE408AF0EE608A06F05BF9B0EE88
:10065000480AF0EE680A41EC120B94ED021B217976
:100660004F4800F0F5FFA06A85ED020B06F04AF94D
:10067000CDE90001A06906F045F995ED069B94EDE2
:10068000048BB0EE493AF0EE693A41EC100BB0EE53
:10069000481AF0EE681A6379A279217940489DEDF5
:1006A000002B01F049F8002251EC100B002385EDDE
:1006B000000B06F0F5FB18B1B3790BB118233B62C0
:1006C0003848314C01F0B4F90022374B51EC100B93
:1006D00085ED040B8DED000B06F0E2FB28B99DEDD6
:1006E000000B84ED000B1E232362392002F00AFB6D
:1006F000A0B92E4B0022C5E900239FED1F1B00214E
:10070000B0EE410AF0EE610A294803B0BDEC048B5B
:10071000BDE8F04001F078BBA86270E7D5E900457C
:100720000022224B184E2046294606F0B9FB074608
:100730000028E2D10022164B2046294606F0B0FBE5
:1007400060B996ED021B316A194845EC104B03B0B5
:10075000BDEC048BBDE8F04001F056BB394696ED88
:10076000021B9FED050BCFE7AB6A0133C5E90067BC
:10077000AB623EE7AFF30080000000000000000025
:100780005813FF1F8C11FF1F4814FF1F7814FF1F01
:100790000000F0BF000034430000B4431014FF1FFA
:1007A000B813FF1FB011FF1F000026C0000014C0C7
:1007B000C013FF1F10B51421044602F07BF8204639
:1007C00010BD00BFFFFFFFFF10B51948194C01F025
:1007D000DDFA1948FFF74EFE9FED0D3B9FED0E2B06
:1007E0009FED0F1B9FED100B144800F053FE2046A9
:1007F00029224FF0FF31124B00F0A2FB2046114A94
:100800001149BDE8104003F023BF00BFAFF30080E3
:100810000000000000003440000000E051B89E3F9E
:100820000000000000000000000000A09999C93FEE
:10083000C013FF1F7814FF1FB011FF1F1014FF1FFC
:10084000D407FF1FF806FF1F710400000020704747
:1008500090F8392090F83800101A704790F8383026
:1008600090F839209A4205D95A1C034480F8382060
:10087000187E70474FF0FF30704700BF90F8383057
:1008800090F839209A4286BF1B18187E4FF0FF302F
:10089000704700BF704700BF38B50546B0F85E002E
:1008A00090B195F85D301446C3F1210294420CD802
:1008B00005F13B001844224601F0C4FE95F85D3076
:1008C000234485F85D30204638BD01201446287148
:1008D000EEE700BFB0F85E306BB190F85D30202BD2
:1008E00007D8C218013380F85D30012082F83B1030
:1008F0007047012303710020704700BF0023426945
:1009000080F8383080F8393080F85C3080F85D301D
:1009100080F85E3080F85F3006CA30B40D68046934
:1009200043662A4383660A60A370426990F8613087
:100930001649146813441D7A5B7B01EBC5051B0245
:100940006D6803F4E06343F064032B6090F8623059
:1009500013449D7CDB7D01EBC5011B02496803F458
:10096000E06343F064030B6021685368194205D0CB
:1009700003692C225A70036904229A7103692022A8
:100980005A71036980229A7030BC7047AC7E0000B7
:1009900038B50269D478E4B2E106054624D51023BF
:1009A000D37063061FD504F0040404F0FF03002C89
:1009B0005AD042496A6E00230B7085F85D30002AD8
:1009C00066D0904795F85D30002B61D02B69D0221E
:1009D0009A702B6995F83B201A712B69012285F8D2
:1009E0005C200222DA7038BD04F0400303F0FF00FF
:1009F000002BD8D19379DBB203F0600160294ED08F
:100A0000937803F0100303F0FF01B3B114F0010475
:100A100037D195F85C3095F85D1099424BD9591C47
:100A20002B4485F85C1093F83B3013712B69D0226E
:100A30009A702B690222DA70D5E785F860109379F5
:100A400043F0200393712B6995F839101A791F2907
:100A5000D2B2C6D8194800780028C2D0681801312F
:100A600085F839100276BCE72A6985F83930C02349
:100A700093702B69114A1979012111700222DA70E1
:100A8000B1E7C02393702B691A790222DA70AAE7C2
:100A90000122002385F85D2085F83B3096E703F0BE
:100AA000DF039371AB6E23B185F8380095F83900F8
:100AB00098472A69A4E71471B8E700BF8C14FF1F98
:100AC0002DE9F047374FDFF8E0903B68026982B0CC
:100AD00006460093DDF800800021C825D3789B06E8
:100AE0005BD53B680193019BC8EB03030F2BF5D942
:100AF00049B1102BF2D000209070336980229A7097
:100B000002B0BDE8F087726996F8613013440521A0
:100B1000187A02F005F9726996F8613013440121E0
:100B200093F812A0504602F0FBF809240021504629
:100B300002F0E2F82B46013BFDD10121504602F0C4
:100B4000DBF82B46013BFDD1013CEFD1706996F8F3
:100B5000611001444FF4C8720C7A4B7B09EBC4015D
:100B60001B02496803F4E06343F064030B6096F8EA
:100B700062300344997CDB7D09EBC1011B024968AB
:100B800003F4E06343F064030B60013AFDD1326982
:100B9000D3789B064FF00101A3D4012002B0BDE839
:100BA000F08700BFD014FF1FAC7E0000F0B50369D2
:100BB0001222DA700269937803F0200385B00446AC
:100BC0000D46002B5ED0B42393703C4922690B681C
:100BD0000093009E05E00B680193019B9B1B042B77
:100BE00042D8D37803F0200303F0FF00002BF2D0AB
:100BF00094F85D30002B31D04FF0000E4FF0020C16
:100C000004EB0E0393F83B3013710B680393039FBF
:100C1000206907E09B060DD50B680293029BDB1B46
:100C2000052B28D8C378DBB203F0020202F0FF06DE
:100C3000002AEFD080F803C02669F378DBB2DF0624
:100C400032462DD49F062BD5DB0731D40EF1010E91
:100C500094F85D305FFA8EFE7345D1D800201DBB3D
:100C6000002384F85E3004E09070236980229A703B
:100C7000042005B0F0BD86702369802204209A709C
:100C800005B0F0BD03F0FF06FFF71AFF10B904200E
:100C900005B0F0BD236984F85F60B0229A7094E7D4
:100CA0008023B3700420DAE726698023B370D7E786
:100CB000BEF1000F0CBF02200320F6E7D014FF1F87
:100CC0002DE9F04106690025122780F8385080F898
:100CD0003950F770D0F810C09CF802E00EF0200EEA
:100CE00088B00446884615461E46BEF1000F49D01E
:100CF000B4238CF80230784B21691A680092DDF831
:100D000000E006E01A6801920198CEEB000004288A
:100D100030D8C87800F0200000F0FF070028F1D09C
:100D20004FEA480242F00102D2B20A711A680292F6
:100D3000DDF808E0206906E01A6803920399CEEB1B
:100D4000010105292AD8C17801F0020101F0FF074D
:100D50000029F1D04FF0020C80F803C02269D1784D
:100D600011F0110722D12DBB002E0CBFA023802330
:100D7000937003E08F70236980229A70384608B020
:100D8000BDE8F0810EF0FF07FFF79AFE0028F5D0CE
:100D9000236984F85F70B0229A70ACE7877023698A
:100DA000802238469A7008B0BDE8F08180239370A5
:100DB0000027E3E7012D75D0A021917021690A7900
:100DC000BE4667464FF0A80C1A680492049805E0E6
:100DD0001A680592059A121A052A4AD8CA7802F0AA
:100DE000020202F0FF08002AF2D0CF702169CA780F
:100DF000D2B212F0100F08465AD1920658D5013DD2
:100E0000EDB2012D49D0BEF11F0F3BD90A79012D5A
:100E1000DAD11A680692069D05E01A680792079AC9
:100E2000521B052A46D8C27802F0020202F0FF01E6
:100E3000002AF2D00223C3702269D378DBB2D9062C
:100E40003AD49B0634D5B023BEF11F0F93703FD820
:100E5000226904EB0E0312791A760EF1010E5FFA85
:100E60008EFE16B1236980229A7084F839E07746A5
:100E700084E781F80280236980229A70774684F89B
:100E800039E07BE704EB0E0291F8048082F81880C9
:100E90000EF1010E5FFA8EFEB9E781F802C02169FA
:100EA0000846B0E7A82191702069BE460279B0E7F4
:100EB000774663E78170DEE71021C823D170013BDC
:100EC000FDD12269937803F0F7037746937055E7D5
:100ED00023691B79C5E700BFD014FF1F0148FFF746
:100EE00057BD00BF6807FF1F0148FFF751BD00BF96
:100EF000D407FF1F0148FFF74BBD00BFFC06FF1FD3
:100F000038B528220C4605460846002106F084FB29
:100F10000B220949204606F061FC0022E272E868D3
:100F200006492061002301250320E56062626061BB
:100F30002162A361E36138BDBC7D00000AD7233C78
:100F400030B4034D0560C1604271836030BC7047AE
:100F5000A87D000070B504464079A3680125A8402B
:100F600083F85E5083F85D5083F83B00A068036807
:100F70001B6816469847A068036831461B68984767
:100F80002946A068FFF712FE284670BDF8B5002577
:100F90002A460F46067C05743D210446FFF7DAFF1A
:100FA0001E2001F0E5FE192001F0E2FE2A4620464F
:100FB0000721FFF7CFFFAFB93A463F212046FFF7A1
:100FC000C9FF0A2001F0D4FE3246267420463D2196
:100FD000FFF7C0FF1E2001F0CBFE1420BDE8F84053
:100FE00001F0C6BE80223F212046FFF7B3FFE8E7AD
:100FF00038B5427983680125AA4083F83B2083F8FD
:101000005E5083F85D500446806803681B6898470B
:101010002946A068FFF7CAFD2B462A466179A068D9
:10102000FFF74EFEA0680B4A03685B6993420BD141
:1010300090F8383090F839209A4208D95A19034468
:1010400080F83820187E38BD9847C0B238BDFF20E0
:1010500038BD00BF5D08000038B5044680680D4605
:10106000FFF74CFC20460021FFF7C2FFA0280BD061
:101070004FF47A7001F07CFE00212046FFF7B8FFA4
:10108000A02801D0002038BD002222743D21204636
:10109000FFF760FF1E2001F06BFE20223F2120465B
:1010A000FFF758FF1E2001F063FE01E001F060FE33
:1010B00000212046FFF79CFFA0284FF00A00F5D141
:1010C000322001F055FE00223E212046FFF742FF6C
:1010D0000A2001F04DFE002207212046FFF73AFFCB
:1010E00000223F212046FFF735FF0A2001F040FE95
:1010F0002A463D2125742046FFF72CFF1E2001F0D3
:1011000037FE142001F034FE012038BD2DE9F041F6
:101110004479054601278068BC4080F83B4080F850
:101120005E7080F85D70A8680468D4F800801E4680
:101130001446C0473946A868FFF738FD3B4632469B
:101140006979A868FFF7BCFD0EB3013E54FA86F634
:10115000114F013C10E090F8383090F839209A4255
:1011600003F1010E00EB030114D980F838E0087E8A
:1011700004F8010FB4420AD0A86803685B69BB4257
:10118000E9D09847C0B204F8010FB442F4D101206D
:10119000BDE8F081FF20EBE75D080000F0B50D46EB
:1011A00083B0144600211822064606F035FA21467F
:1011B00028466A4600250623ADF804500095FFF73F
:1011C000A5FF9DF803709DF805509DF801009DF85E
:1011D00000109DF802209DF8043041EA002042EA08
:1011E000072243EA0523083C00B217B21DB2262CA1
:1011F0002FD8DFE804F0142E2E2E2E2E312E2E2E78
:101200002E2E312E2E2E2E2E312E2E2E2E2E2E2EF8
:101210002E2E2E2E2E2E142E2E2E2E2E140005F0B7
:1012200071FB00221B4B05F0FDFCC6E900013846AE
:1012300005F068FB0022174B05F0F4FCC6E902013B
:10124000284605F05FFB0022124B05F0EBFCC6E9D7
:101250000401304603B0F0BD05F054FB00220E4BF4
:1012600005F0B6FBC6E90001384605F04BFB00224D
:10127000094B05F0ADFBC6E90201284605F042FB2B
:101280000022054B05F0A4FBC6E90401304603B07B
:10129000F0BD00BF000059400000B03F70B52426EB
:1012A00088B00C46054632460846002106F0B4F9DF
:1012B000104BE9681B680193019B23610322616065
:1012C000A26029461A2202A82660FFF767FFDDE91F
:1012D000020105F055FE6061DDE9040105F050FEF4
:1012E000A061DDE9060105F04BFEE061012008B0D8
:1012F00070BD00BFD014FF1F30B5A1F13C0083B01A
:10130000144605F0FFFACDE90001A4F13C0005F018
:10131000F9FA9DED001B41EC100B03F09DFA03F070
:101320009FF955EC104B0022002310EE100A2946BD
:1013300005F0D4FDC8B10022104B2046294605F027
:1013400095F905F0F5FDC0F5877300EE103ADFED75
:101350000C0AB8EEC00A03F0A3F910EE100A05F06B
:10136000E3FA41EC100B03B030BD0022034B2046E2
:10137000294605F079F905F0DBFDE4E70000E03FE0
:101380000000B443FFFFFFFF70B5044600F14406C0
:1013900003E002F001F8FE2804D001F0E9FF07287D
:1013A000F7DC70BD04F1280501F0F6FF45F8040FE5
:1013B000AE42F9D1E16A626BE36BB1F1FA0018BF9A
:1013C0000120FA3A18BF0122FA3B18BF0123FA297B
:1013D00020716271A37139D19FED250B206B3C38D0
:1013E0003C3900FB00F084ED020B01FB010005F02D
:1013F00089FA41EC100B03F09DFA51EC100B05F04B
:1014000097FD6379A0616BBB9FED190B636CA279AB
:10141000C3F1500384ED040BE361EAB99FED140BB3
:10142000206CE36B3C383C3B00FB00F003FB03000B
:1014300084ED080B05F066FA41EC100B03F07AFA24
:1014400051EC100B05F074FDA062A6E7226B20465C
:10145000FFF752FFE16AC1E7226CE16B2046FFF71C
:101460004BFFDDE7A26B616B2046FFF745FFCDE741
:10147000000000000000F0BF10B54FF4E131044659
:10148000034800F03FFE0023E3642365636510BD5D
:101490004008FF1F10B580ED000B80ED021B80EDB2
:1014A000042B80ED083B044601F040FCA06120467F
:1014B00010BD00BF2DE9F04F59EC108B87B010EE36
:1014C000102A04464B4651EC110B57EC126B05F0F9
:1014D000CBF88B468246CDE902AB01F027FCA3692D
:1014E0009FED597AC31A07EE903AF8EE677A0546EF
:1014F000C7EE876A16EE900A05F016FAA561024655
:101500000B4650465946CDE9042305F061FAD4E96B
:101510000A2305F0ABF882468B4600220023C4E97B
:101520000AAB3046394605F0BBFCD4E90C23E8B9D8
:101530004046494605F098F8324607F10043CDE9A8
:10154000000105F0B7FC00285ED0DDE9000132465D
:101550003B4605F08BF8CDE90001DDE90423DDE928
:10156000000105F05FFB06460F4609E0404649468C
:1015700005F07AF8DDE9042305F054FB06460F4632
:10158000C4E90C89D4E90023DDE9020105F020FA61
:10159000D4E90223804689465046594605F018FA98
:1015A00002460B464046494605F060F8D4E904235C
:1015B000804689463046394605F00AFA02460B460F
:1015C0004046494605F050F8D4E9084506460F461E
:1015D000002200232046294605F062FC78B905F177
:1015E000004922464B463046394605F063FCE0B9D7
:1015F00022462B463046394605F07AFCE0B947ECE6
:10160000106B07B0BDE8F08FDDE9002330463946A6
:1016100005F050FC0028A0D0DDE9000132463B4631
:1016200005F022F8CDE9000197E726464F4647EC42
:10163000106B07B0BDE8F08F26462F4647EC106BC5
:1016400007B0BDE8F08F00BF00247449FFFFFFFF23
:101650002DE9F04155EC114B2DED048BB0EE408A95
:10166000F0EE608AB0EE429AF0EE629A884600226E
:101670002D4B11EE100A294605F03AFC30B32046F6
:1016800029460022294B04F0EFFF41EC100B9FED9F
:10169000242B2748B0EE421AF0EE621AFFF70AFF39
:1016A00057EC106BB8F1000F30D00022214B51ECF9
:1016B000190B10EE104A07F1004505F019FC40B96E
:1016C000BDEC048B45EC104BBDE8F08145EC104BB4
:1016D000DDE732462B463046294605F079F953ECD2
:1016E000182B04460D4618EE100A194605F070F93D
:1016F00002460B462046294604F0B8FFBDEC048B99
:1017000041EC100BBDE8F04103F014B9B0EE480A0B
:10171000F0EE680ABDEC048BBDE8F081AFF3008009
:10172000000000000000000000806640008076405D
:101730009014FF1F0000444038B52DED068B82B396
:10174000B0EE42AAF0EE62AA55EC134B0022784BA1
:1017500013EE100A294605F0B7FB00285CD15EA302
:10176000D3E900232046294605F0B8FB002853D1D1
:101770000022704B2046294605F0BAFB00226E4B32
:1017800000284ED051EC1A0B05F09EFB002875D0B6
:10179000204629460022694B04F066FF41EC100BFD
:1017A0003CE021B3B0EE408AF0EE608A2BB3B0EE9D
:1017B000419AF0EE619A0022614B51EC100B05F05A
:1017C00079FB00283FD046A3D3E9002351EC190B45
:1017D00005F070FB00286BD141A3D3E9002351EC45
:1017E000190B05F085FB58B39FED3F0B16E09BB935
:1017F000BDEC068B9FED3E0B38BD0022504B51ECEB
:10180000100B05F057FBD8B900224D4B51EC180BCB
:1018100005F06EFB0028EBD09FED370BBDEC068B7F
:1018200038BD51EC1A0B05F04FFB002843D1204680
:1018300029460022434B04F019FF41EC100BEDE761
:101840009FED2F0BEAE700223D4B51EC180B05F002
:101850004FFB23A3D3E90023C8B151EC190B05F0CA
:1018600029FB88BB1EA3D3E9002351EC190B05F01B
:101870003FFB0028D0D09FED240BCFE72046294620
:101880000022304B04F0F0FE41EC100BC6E751ECA7
:10189000190B05F00FFBD0B911A3D3E9002351ECCC
:1018A000190B05F025FB0028A2D09FED190BB5E719
:1018B0009FED190BB2E72046294600221F4B04F08A
:1018C000D5FE41EC100BA9E79FED150BA6E79FEDA8
:1018D000160BA3E7AFF300800000000000A07440E7
:1018E0000000000000C067400000000000206C40C5
:1018F000000000000000F0BF000000000000000039
:1019000000000000008066400000000000B073404E
:101910000000000000E070400000000000E06040B7
:10192000000000000080464000000000008056409B
:1019300000003E4000806640000044400080564069
:1019400000004C40008051409FED053B9FED062B71
:101950009FED071B9FED080B0948FFF79BBD00BFDC
:101960000000000000003440000000E051B89E3F3D
:101970000000000000000000000000A09999C93F8D
:101980009014FF1FF0B5124B0E460FCB85B004AC80
:1019900004E90F0003ADADF104070824A642ACBF73
:1019A000287828784FF00101A5F10405B4BF002183
:1019B000361B01F0A1F904EBD474BD424FEA640474
:1019C000ECD1412005B0BDE8F04000F079BD00BF8A
:1019D000C47D0000F8B501210646002001F0A0F901
:1019E0000121084601F09CF90121022001F098F93B
:1019F0000121052001F094F90021412001F090F926
:101A000006F5B275344606F1400755F8041F304616
:101A1000FFF7B8FF44F8040FBC42F6D16FF00A029A
:101A2000002332603266336586F85C30F8BD00BF53
:101A30002DE9F04F99B00546402208A8002105F095
:101A4000EBFD08AC05F5B2782E4605F140090027FC
:101A500058F8041F2846FFF795FF56F8043FC8338F
:101A6000984203DD23680133013723604E4504F1BA
:101A70000404EDD1119B0093129B0593139B0793D4
:101A80000E9B01930D9B0693099B0293179B169A3D
:101A90000497DDF84090DDF83CA0DDF820B003921B
:101AA00007AE05F1E80405F5B47800201F4619E0FB
:101AB000BAF1000F40F3AD8004F024FF54E9202375
:101AC00004F0D4FD05F034FABBF1000F40F3AA8016
:101AD000002F40F3AE804FF0010385F85C300834EE
:101AE00044451AD056F8043F002BF8DDB9F1000F39
:101AF000DEDC009B002BDBDC059B002BD8DC079B8E
:101B0000002BD5DC04F0FEFED4E9002304F0AEFD8A
:101B1000083405F00DFA4445E4D1049F07EE900A1D
:101B200007EE107AF8EEE77AF8EEC76A87EEA67A43
:101B3000FDEEC77A17EE903AB3F5B47F7EDBA3F5DE
:101B4000B473EB64002F7DD02B6D002B40F08B80A5
:101B5000EB6C2B6001222A652B6695F85C30002B1C
:101B600040F0A680E86CC0F1E103002BB8BF5B42F7
:101B7000222B40F3D280C0F59D730133002BB8BFF8
:101B80005B42192B40F23B1240F3C180C0F12D03A0
:101B9000002BB8BF5B42192B40F3CD80C0F1870307
:101BA000002BB8BF5B42192B40F3CC80C0F15A0325
:101BB000002BB8BF5B42192B40F3CB80C0F1B403BC
:101BC000002BB8BF5B42192B40F3CA80C0F5877366
:101BD000002BB8BF5B42192B40F3C98080EAE07349
:101BE000A3EBE073192B0DDD674B1B1A002BB8BF5D
:101BF0005B42192B06DDC0F5B473002BB8BF5B4206
:101C0000192B6CDC00232B6004F07CFE41EC100BE4
:101C100023E0019B002B3FF74FAF069B002B3FF7C4
:101C20004BAF6FE7029B002B7FF759AF002F3FF7B9
:101C300052AF039B002B3FF74EAF50E7C5ED137A31
:101C4000002F81D12B6D012B58D9023B012B39D9A3
:101C5000E86C04F057FE41EC100B002385F85C3073
:101C600019B0BDE8F08F032B35D02A68E86C111A43
:101C700081EAE176A6EBE176452E3ADD02F5B47411
:101C8000241A002CB8BF6442452C32DDA1F5B47192
:101C90000029B8BF494245292BDD022B48D0462EEA
:101CA00029D0012B1BD10223EA6410462B6516E0D4
:101CB000286E28600223E8642B6504F023FE41ECC3
:101CC000100BCAE72868E86403232B6504F01AFEAA
:101CD00041EC100BC1E7022328682B65E86404F08F
:101CE00011FE41EC100B002385F85C3019B0BDE803
:101CF000F08F022B18D0012BF1D12EE76FF00A03E1
:101D00002F65EB642B602B669FED1D0BA5E72A600A
:101D100004F0F8FD41EC100B9FE7E1232B6004F089
:101D2000F1FD41EC100B98E70123EA642B6514E701
:101D3000EA641046D3E72D232B6004F0E3FD41EC69
:101D4000100B8AE787232B6004F0DCFD41EC100BBD
:101D500083E75A232B6004F0D5FD41EC100B7CE7A0
:101D6000B4232B6004F0CEFD41EC100B75E74FF46B
:101D700087732B6004F0C6FD41EC100B6DE700BFCC
:101D800000000000000026C098FEFFFF70B50D4D5A
:101D900006460FCD34460FC495E80F0084E80F00C7
:101DA00006F1200002F0A8FC06F12C0002F0A4FCD1
:101DB00006F1380002F0A0FC06F1440002F09CFCA1
:101DC000304670BDD87D000010B5152304461122A1
:101DD0002030102102F092FC04F12C001423272261
:101DE0000F2102F08BFC04F138001723132212217B
:101DF00002F084FC04F1440016230E220D21BDE8FC
:101E0000104002F07BBC00BF2DE9F04F91B05BECBD
:101E100011AB069001918DED081B8DED0A1B8DED28
:101E20000C1B8DED0E1B002900F03781034620337B
:101E300008AC57EC106BA046054607939946F5E8A9
:101E400002010022AE4B04F011FC32463B4604F086
:101E50000BFC41EC100B02F013FC02F09DFC4D4515
:101E6000A8EC020BEBD19DED087B0022002351EC86
:101E7000170B8DED047B05F03BF8002800F01A816C
:101E80009DED047B8DED027BDDE90A6700220023D6
:101E90003046394605F02CF8002800F01B81B0468A
:101EA000B946DDE9025642464B462846314605F022
:101EB00015F808B1A846B146DDE90C6700220023F9
:101EC0003046394605F014F8002800F0FE80CDE9D0
:101ED000026742464B46DDE9020104F0F5FF08B116
:101EE000CDE90289DDE90E890022002340464946FA
:101EF00004F0FEFF002800F0E48046464F46DDE98E
:101F00000289304642464B46394604F0DDFF08B1AF
:101F100046464F463946304605F032F804F004FD97
:101F2000064601980F4604F0EDFC02460B46DDE93B
:101F3000040110AD02949046994632463B4604F0A7
:101F400071FE42464B4604F043FD52465B4604F0A8
:101F50008DFBE4E80201AC4202D0D4E90001ECE7D9
:101F60009DED087B0022002351EC170B029C8DEDA8
:101F7000027B04F0BDFF002800F0BC80DDE902AB6D
:101F8000DDE90A67002200233046394604F0B0FF3D
:101F9000002800F0AB80B046B94642464B4650465A
:101FA000594604F09BFF08B1D046D946DDE90C67DD
:101FB000002200233046394604F09AFF002800F042
:101FC0009180B246BB4642464B465046594604F0C5
:101FD0007BFF08B1C246CB46DDE90E890022002313
:101FE0004046494604F084FF002877D046464F46D5
:101FF00052465B463046394604F066FF08B1564605
:102000005F463946304604F0BBFFDDED017A06EE4F
:10201000900AF8EEE77A87EEA67A17EE100A04F037
:1020200083FC06460F46DDE9020132463B4604F0DA
:10203000CFFCE4E80201A54202D0D4E90001F4E7B4
:10204000DDE90801DDE90A67DDE90C45DDE90E8916
:1020500004F06EFF0146079802F062FB39463046F5
:1020600004F066FF069E014606F12C0002F058FBC4
:102070002946204604F05CFF014606F1380002F0D4
:102080004FFB4946404604F053FF014606F1440029
:1020900011B0BDE8F04F02F043BB069B203311EEB8
:1020A000108AD94654465D4656465F4650465946C4
:1020B0000793CDE7DDE9041202F100430291039397
:1020C000E2E6464609F1004719E707F100430296A8
:1020D0000393FEE6B04607F10049E2E6464609F101
:1020E000004785E7B24607F1004B6CE7B04607F1C1
:1020F000004952E7DDE90223924603F1004B3FE736
:1021000000805640084B4A08134410B50446B3FB00
:10211000F1F000F07DFF054B1B7803B110BD2046A8
:10212000BDE8104002F02CBA000E27077108FF1F0F
:1021300008B5084601F0D8F8012008BD08B50846E2
:1021400001F0D2F8012008BD38B508460D4605F06B
:10215000D7FA04460146284601F0D0F8204638BD9B
:1021600010B508461446114601F0C8F8204610BDC7
:102170000846114601F03ABA0846114601F01CBA69
:1021800001F070B908B5084601F08EF8003018BFAC
:10219000012008BD08B5084601F064F8003018BFFA
:1021A000012008BD0846114601F030B8084601F08C
:1021B00057B800BF084601F00DB800BF00F0D2BF0D
:1021C00010B5064B144603EB5100B0FBF1F000F0E4
:1021D0001FFF2046BDE8104000F068BF000E270733
:1021E00001F01AB901F0D8B801F0C2B801F09CB8FA
:1021F00001F0A6B80368064A1B68934205D110B5E2
:10220000C8B201F071F8012010BDC9B2184700BF73
:102210003D2100000368064A1B68934205D110B5B2
:10222000C8B201F061F8012010BDC9B2184700BF63
:102230003D2100000368064A1B68934205D110B592
:10224000C8B201F051F8012010BDC9B2184700BF53
:102250003D2100000368064A1B68934205D110B572
:10226000C8B201F041F8012010BDC9B2184700BF43
:102270003D21000030B5044683B002252A4601A85E
:10228000054900F0DFF923682A4601A95B6820466A
:10229000984703B030BD00BF607E0000374A384920
:1022A00013681B06FCD40B6813F08003F8D172B6D8
:1022B00034490A78002A5FD0334A3448F0B4344CA9
:1022C000176806682568D4680C303E4414320068EC
:1022D0001268304F35442C4420440244C2F34E026D
:1022E0002D4E2E482E4D2F4C42F400423A60376856
:1022F00006682D682C4A24680C303E440068126839
:102300002A4F35442C4420440244C2F34E02284E46
:102310002848294D294C42F400423A603768066843
:102320002D68274A24680C303E4400681268254F07
:1023300035442C4420440244C2F34E02224E23482A
:10234000234D244C42F400423A60376806682D68F9
:10235000214A24680C303E440068126835442C44FD
:1023600020440244C2F34E021C4842F40042026080
:102370000B7062B6F0BC704762B6704724B0034081
:1023800024B00B40C914FF1F38B003403CB00340D9
:1023900040B003402CB0034058B003405CB0034051
:1023A00060B0034064B003406CB0034030B0034001
:1023B00038B00B403CB00B4040B00B4044B00B4039
:1023C0004CB00B402CB00B4058B00B405CB00B40F5
:1023D00060B00B4064B00B406CB00B4030B00B40B1
:1023E00030B42948294A2A4B2A4D6024E12104703F
:1023F00011701B78284C082B30D00A2B274828490D
:1024000037D00C2B0CBF35225D2212232A602360AB
:1024100002600B60234B24491B78244ABBB1012383
:102420000B601360224B23491B78234A012B26D9CA
:10243000042B0FD9082B1ED9102B94BF862387237A
:102440000B6013601D4B01221A7030BC70470B608B
:102450001360E7E784230B601360F3E700F58E2039
:102460000F490830212213232A60236002600B6089
:10247000D0E73922F7E785230B601360E2E780237A
:102480000B601360DEE700BF0040074001400740DB
:102490005408FF1F08B003400CB0034008B00B40C5
:1024A0000CB00B40CC14FF1F20B0034020B00B40F9
:1024B0005508FF1F24B0034024B00B40C914FF1F70
:1024C00047282FD8334B2DE9F0411E5CFF2E2BD02F
:1024D000314B1B78002B2AD132062CD472B62F4DEB
:1024E0002F4C2F46012326602B7062B672B62368EC
:1024F0001B060CD43B781BB9F4E72B78002BF1D0EA
:1025000062B601F09BFF72B623681806F5D5254B1D
:102510001B6800222A7062B6234A107843FA00F042
:10252000BDE8F081002070470020BDE8F081FFF792
:10253000B5FE3206D2D572B61C4DDFF87C801C4C3D
:1025400006F04007FFB206F03F06D8F80030DFB1D2
:1025500023F01003C8F8003001232660134A2B70C3
:1025600062B672B6236819060CD413781BB9ECE76F
:102570002B78002BE9D062B601F060FF72B62368B9
:102580001B06F5D50B4BC3E743F01003C8F800302A
:10259000E2E700BF647E0000C914FF1FCB14FF1FD9
:1025A00000B0034010B00340C814FF1FCA14FF1F3F
:1025B00000B00B4010B00B400CB00B400A4A0B4966
:1025C000136843F4805313600B7843B9084BC0225F
:1025D0001A70084B80F30C0000B218807047044B4F
:1025E00080221A70F5E700BF2C800440CC14FF1F36
:1025F00021C00C4000C00C400A4A0B49136843F448
:10260000005313600B7843B9084BC0221A70084B73
:1026100080F30C0000B218807047044B80221A70BF
:10262000F5E700BF2C800440CC14FF1F21D00C40E4
:1026300000D00C4008B5FDF74BFFFDF7B9FF01F0E6
:10264000FDFEFAE701B441EA000313F003036FD182
:10265000403A41D351F8043B40F8043B51F8043B65
:1026600040F8043B51F8043B40F8043B51F8043B6C
:1026700040F8043B51F8043B40F8043B51F8043B5C
:1026800040F8043B51F8043B40F8043B51F8043B4C
:1026900040F8043B51F8043B40F8043B51F8043B3C
:1026A00040F8043B51F8043B40F8043B51F8043B2C
:1026B00040F8043B51F8043B40F8043B51F8043B1C
:1026C00040F8043B51F8043B40F8043B51F8043B0C
:1026D00040F8043B403ABDD2303211D351F8043BAC
:1026E00040F8043B51F8043B40F8043B51F8043BEC
:1026F00040F8043B51F8043B40F8043B103AEDD25B
:102700000C3205D351F8043B40F8043B043AF9D2AB
:1027100004320AD0D2071CBF11F8013B00F8013B7C
:1027200003D30B7803704B78437001BC704700BF34
:102730000C2A4AD310F0030311D0C3F10403D21AB8
:10274000DB071CBF11F8013B00F8013B07D311F870
:10275000013B00F8013B11F8013B00F8013B11F08F
:1027600003033FF475AF30B4043AC91AC3F1040C43
:1027700051F8044B022B19D0032B0BD0240A51F82B
:10278000043B1D0644EA050440F8044B1C46043A89
:10279000F4D216E0240E51F8043B1D0244EA05046D
:1027A00040F8044B1C46043AF4D20AE0240C51F8D9
:1027B000043B1D0444EA050440F8044B1C46043A5B
:1027C000F4D20432B1EB0C0130BC043AA0D3013A8C
:1027D00011F8013B00F8013BF9D20B7803704B78FC
:1027E00043708B78837001BC704700BF08B5104CF4
:1027F00008E0236859050DD423681A050FD423680F
:10280000DB0411D423685803F3D500F0B7FF236825
:102810005905F1D500F00EF823681A05EFD500F040
:1028200009F82368DB04EDD500F004F8EAE700BFFF
:102830003480044008B5FFF7D9FF00BF014B1022D8
:102840001A80704700200540704700BF094908B54D
:102850000B6830B16A461844A2F50052904202D289
:102860000860184608BD04F0E1FB0C2303604FF03C
:10287000FF3008BD5808FF1FEFF3138070B9EFF366
:1028800010836BB9EFF305825AB94FF48070EFF300
:1028900011832BB1984228BF184670474FF0FF3084
:1028A00070470F2A01D81846F1E7014BD05CEEE7DC
:1028B000F0E300E004F0F0BBF0B44D1E2E4600241F
:1028C00000E00134B0FBF2F302FB1300092800F131
:1028D00030078ABF3730F8B2C0B206F8010F184689
:1028E000002BEED10A1953704CB1107815F8016F16
:1028F00028700133E01A834202F80169F5DB0846CB
:10290000F0BC704710B4114B53F8302092F880425D
:1029100034B1012379B182F880305DF8044B7047FF
:1029200003EBC0035B681A6851B922F002021A6017
:102930005DF8044B704782F800315DF8044B704736
:1029400042F003021A605DF8044B7047AC7E000051
:102950001C4A02EBC00301295B6811D004291BD07B
:1029600052F83000002280F8802229B1022920D0BC
:10297000032922D01A6070474FF480721A607047A2
:1029800052F830004FF4A27280F880121A601A6870
:1029900022F020021A60704752F830104FF4A272F1
:1029A000012081F880021A601A6842F020021A6041
:1029B000704740F203121A6070474FF481721A6038
:1029C000704700BFAC7E000030B4054B054D064C8F
:1029D000002210211A602A602060196030BC704704
:1029E00014D0034004D0034000D00340704700BF20
:1029F00038B5A0F14203012B04461FD9002975DD2B
:102A0000904B1B78012505FA03F28A4202D83F2831
:102A100027D938BDC21E012A2BD9A0F11D02012AD7
:102A200073D90E2856D9A4F12302032A57D9864A0E
:102A3000126802FB011222FA03F320E0814B1B789B
:102A40000B2B0AD90C2B1CBF0C3B1941422C0846FE
:102A500057D0BDE83840FFF7CFBDC3F10C03994014
:102A6000F4E72946FFF74EFF2946BDE83840FFF757
:102A70006FBF764A126802FB011222FA03F3A21E0C
:102A8000242A00F2D580DFE812F0CC00C500BE0099
:102A9000B700B000A900A2009B009400D300D300AF
:102AA000D3008D00D300D300D300D300D300860021
:102AB0007F0078007100D300D300D300D300D3008F
:102AC0006A006300D300D300D300D3005C0055003C
:102AD0004E00470044F28412C240D207A3D55C4A9C
:102AE000126802FB011222FA03F3C8E73F2890D8CC
:102AF0000021FFF707FF20460121BDE83840FFF71E
:102B000027BFBDE83840FFF759BD524A126802FBA3
:102B1000011222FA03F3B2E74F49504A0B604FF417
:102B20005173136038BD4E494E4A0B604FF45173D8
:102B3000136038BD4C494D4A0B604FF4517313601C
:102B400038BD4B494B4A0B604FF45173136038BD8D
:102B500049494A4A0B604FF45173136038BD4849E4
:102B6000484A0B604FF45173136038BD4649474AD9
:102B70000B6040F24443136038BD4549454A0B6041
:102B800040F24443136038BD4349444A0B6040F26D
:102B90004443136038BD4249424A0B6040F244430B
:102BA000136038BD4049414A0B6040F24443136012
:102BB00038BD3F493F4A0B6040F24443136038BD83
:102BC0003D493E4A0B6040F24443136038BD3C49E6
:102BD0003C4A0B6040F24443136038BD3A493B4ADB
:102BE0000B6040F24443136038BD3949394A0B60E9
:102BF00040F24443136038BD3749384A0B6040F215
:102C00004443136038BD3649364A0B604FF4517364
:102C1000136038BD3449354A0B604FF4517313606B
:102C200038BD3349334A0B6040F24443136038BD2A
:102C30003F2C3FF6EEAE7F29D4BF00210121204674
:102C400057E700BF5C08FF1F08800340089003405F
:102C500008900B4008800B4048900B402CB004407B
:102C600040900B4028B0044038900B4024B0044002
:102C700030900B4020B0044018800B404CA0044022
:102C800010800B4048A004401880034008B0044066
:102C90001080034004B004404080034018C004404A
:102CA0003880034014C0044018900B4004C0044016
:102CB0002880034010B00440208003400CB0044042
:102CC00028900B400CC0044020900B4008C00440EA
:102CD0003080034010C00440488003401CC00440C2
:102CE000189003403490044010900340309004400A
:102CF00010900B4000C004403F2801D8FFF702BEEF
:102D0000704700BF3F2806D8044B53F8303093F883
:102D10000002C0B270470020704700BFAC7E0000C8
:102D20003F2801D8FFF714BE704700BF72B60C49A8
:102D30000C4B0D4A1B680868126862B6520102D536
:102D4000322B88BF01300949C3F5EA334FF47A7258
:102D5000BF33A1FB031302FB00F000EB931070479D
:102D6000D014FF1F18E000E004ED00E08988888897
:102D70002DE9F843054672B6204F214B214A1B68C6
:102D80003C68126862B6520102D5322B88BF01340A
:102D900095B3C3F5EA331C4EDFF86490DFF8648026
:102DA000BF334FF47A72A6FB031302FB04F404EB67
:102DB000931472B6D9F800103A68D8F800E062B6F9
:102DC000C1F5EA33BF33A6FB03031EF0806FC4EBEB
:102DD00093134FF47A7002D0322988BF013200FB7E
:102DE0000233B3F57A7F04D3013D05D004F57A743C
:102DF000DFE701F023FBDCE7BDE8F883D014FF1F19
:102E000018E000E004ED00E089888888F8B53F4BC1
:102E10003F49DFF81CC13F4E3F4ADFF818E13F4D04
:102E20003F4C404F4FF0006018604FF080501860EA
:102E30004FF0005018604FF0804018604FF0004095
:102E400018600020086028234EF6FF71CCF80010AF
:102E5000CEF8003033600EF5012E13602B60236036
:102E600005F500253B6004F50024B36207F5002753
:102E7000936206F5012602F501220EF1100E05F609
:102E8000E87504F6E87407F57F67103220362B608A
:102E90002360CEF800303B6013603360224EBB618C
:102EA000936109223260A7F5002706F58056203F7E
:102EB000083638603160BB60F36047F8042C06F5D3
:102EC000FD2607F5FE2706F2FC76043730603960F0
:102ED000B360FB6046F8042C0836C7F8FC0F06F612
:102EE000FC76124831602B6023600260FFF778FAAD
:102EF000FFF77CFD1420FFF73BFF01F079F84FF45A
:102F00008C70BDE8F840FFF733BF00BF04E100E07C
:102F100004800340148003401C800340248003404D
:102F20002C800340348003400080034000900B401D
:102F3000088003400C8003402DE9F84F2C4B1B68A0
:102F400007460BB101221A70DFF8BC90DFF8BC8095
:102F500099F80040D8F80030264D274E01349C42A5
:102F60002ABF4FF0000A5FFA84FA5446AB462B782A
:102F7000A3421CD1FFF780FC40282BDC33791B06D1
:102F8000F5D59BF80030D8F80010DBB25A1C8A4205
:102F900025D2272A29D91949273B0968CB5CD1B208
:102FA000DBB2DBB2F37129702B78A342E2D0272C7D
:102FB0008ABF124B124B1B68124988BF283CFFB2D4
:102FC0001F550D4B0120AC22087089F800A0DA7063
:102FD000BDE8F88FFF28CADD01F030FAC7E700210D
:102FE0000A46074B9B5CDBB2DBE7D1B2F9E700BFD7
:102FF0005015FF1F4915FF1F00A00E400415FF1FAD
:10300000DC14FF1F4815FF1F5415FF1F6C08FF1F1E
:103010001B4BDFF890C01A681A49F0B542F4806281
:10302000194D1A60DFF880E0184F194E194C002333
:103030008CF800304FF451722B701F2840F213357A
:103040008EF800303B70337025600A6011D8194645
:103050000124114A114D11701148547000212C2780
:1030600040269372042491701174D7702E700460FE
:10307000F0BDC0F34431C0F3471400F01F03E8E78C
:103080002880044060D00440D914FF1F4915FF1F59
:103090004815FF1F64D0044000A00E4042E400E049
:1030A00008E100E0D814FF1F5415FF1F284B2849E2
:1030B0009B7803F0EC0200F003031343420700F097
:1030C0000F0248BF43F01003042A8B7038D0204B06
:1030D0001F4A5B79C10603F0EF0348BF43F01003BA
:1030E00053719379820603F0EF03194A48BF43F006
:1030F00010039371C30506D553781178DBB241F004
:1031000020011170537010F4007005D1114B124A58
:103110001968914219D0704730B40D490F4D8A7823
:103120000F4B0C480C4C42F0A0028A702A780460C5
:1031300003EBC20340F247325B6830BC1A60704751
:103140008B7943F040038B71C1E71860704700BF73
:1031500000A00E405015FF1FD400D4437008FF1F7D
:10316000AC7E0000F8B5124B1B685B051ED5114CF8
:10317000237823B101F062F92378002BFAD10E4BAA
:103180000E4A0F4D0F4F104E104C1148042119607C
:103190000023D37040F2031139603160296815793A
:1031A000D2792370037011B101230B70F8BDF8BD03
:1031B000288004404815FF1F88E100E000A00E4071
:1031C000D414FF1F64D0044060D00440D814FF1F03
:1031D000D914FF1F0A4A38B50546137803F0FF04D7
:1031E000002BFAD101212846FFF79AFD21462846F7
:1031F000FFF782FD034A044B52F835201A6038BDB0
:103200004815FF1FAC7E00005015FF1F09B140F0AC
:103210008000104A137898421AD010B40E4C2468DB
:10322000640512D503F07F03212B02D10B4B002440
:103230001C60002900F07F0314BF60214421212B72
:1032400003D1064B41F44071196010705DF8044BD6
:10325000704700BF7008FF1F2880044060D0044002
:10326000704700BF0D4B1B6813F4806305D03F28E7
:1032700005D90B4B00201860704718467047094B62
:1032800010B5074C53F8303023600121FFF748FD9B
:10329000236800221A70012010BD00BF288004405E
:1032A000D414FF1FAC7E00000C4B1B6813F480632A
:1032B00006D0182806D00A4A537B03F0FE03537346
:1032C00000207047074B064A40F202311960537BD9
:1032D00043F0010353730120704700BF288004406E
:1032E00000A00E4068D00440034B1B685B0501D56D
:1032F000FFF722BE704700BF2880044070B5094E1A
:1033000004464518AC4204F101040AD033685B0559
:10331000F8D514F8010CFFF70FFEAC4204F10104DC
:10332000F4D170BD2880044010B5044C237823B13B
:1033300001F084F82378002BFAD110BD4815FF1F47
:10334000084B094A1B781078DBB2C0B2834202D224
:103350000138C01A7047054A1268013A1044C01A71
:10336000704700BF5415FF1F4915FF1F6C08FF1F52
:10337000064A074B10781B78C0B2DBB2984202D2E3
:10338000044A12681044C01A704700BFD814FF1FC7
:10339000D914FF1F6008FF1F70B4184B184D1B781D
:1033A0002A78D9B2D2B2914222D0164B1C68531C53
:1033B000A34214D3002213461348C05CC0B2134E7C
:1033C0002A7032684AB1994238BF0919CB1A10499C
:1033D00009688B4201D80023137070BC70473F2BE3
:1033E00009D90C483F3A0068805CDAB2C0B2E6E71F
:1033F0004FF0FF30F1E7DAB2DEE700BFD814FF1F6D
:10340000D914FF1F6008FF1F0815FF1FD414FF1FEA
:103410006408FF1F4C15FF1F0D4A0E4B12781B78D6
:10342000DBB29A4211D00C4A11685A1C8A4204D36A
:1034300000220A4B985CC0B270473F2AF9D9084A6B
:103440003F3B1268D05CC0B270474FF0FF3070470E
:10345000D814FF1FD914FF1F6008FF1F0815FF1F96
:103460004C15FF1F054B064A1B7806491268DBB254
:103470000B700AB100231370704700BFD914FF1FEF
:10348000D414FF1FD814FF1F30B43C4B1A79940694
:1034900026D53B4DDC793B4B29781A683A4BC9B2AB
:1034A000481C9042E4B232D3197801F0FF0300299E
:1034B00057D00023184635490C542B7034490968FD
:1034C00071B1344B1B78DBB2834284BFD21A13181C
:1034D000314A126898BFC31A934224BF01230B706C
:1034E000264AD378DBB218061DD45A060DD5234BD5
:1034F0001B795B0609D5294B29491B6800220A70F4
:1035000003B11A701D4B2C22DA7030BC70471B7847
:103510009842D3D03F282FD9224B3F391B685C54A7
:10352000C3B22B70CAE711790906DED51E49194CC2
:1035300008782178C9B288421BD01C4A1268481CFE
:10354000904210D2272898BFC1B20ED9184A273905
:103550001268525CC1B2D2B20848D2B2C2712170B4
:10356000C3E71846AAE700210846124A125CD2B205
:10357000F2E76C21D170B8E7C3B29CE700A00E401F
:10358000D814FF1F6008FF1FD914FF1F0815FF1F65
:10359000D414FF1F4915FF1F6808FF1F5015FF1F98
:1035A0004815FF1F4C15FF1F5415FF1F6C08FF1F08
:1035B0000415FF1FDC14FF1F084B1860084B50B1A7
:1035C00001F140021A60074A074B01F11A00283145
:1035D00010601960704740221A60F4E74C15FF1F15
:1035E0006008FF1F6408FF1F6808FF1F044B186076
:1035F000044B10B128311960704728221A607047B7
:103600000415FF1F6C08FF1F704700BF431E032BEC
:1036100014D872B60A4951F8230068B170B4094C45
:10362000058834F81320466841F82360521B24F8BB
:10363000132062B670BC704762B6704700207047B6
:10364000B015FF1FB816FF1F013803280BD872B63C
:10365000074B53F8203043B100205B680130002B4A
:10366000FBD162B67047002070471846F9E700BFEB
:103670000416FF1FF0B472B61A491B4E012311F84D
:10368000014B194F9A00240742F0010505D556F861
:10369000324064B156F83520BAB10133052BEED172
:1036A00062B6124B00221A70F0BC00F037BD0F4C0E
:1036B0000F4D217807EB4313083001395860217012
:1036C00047F8325062B6F0BC7047084A094913788F
:1036D00007EBC5040830013B6060137047F83510F4
:1036E00062B6F0E7D48000000000FF1F2D16FF1F18
:1036F00088004000C8004000431E032B1DD81B4A11
:10370000400140F0100030B4104472B6184CE25C36
:10371000032A1BD8DFE802F00212151703220D88D6
:10372000E25410F0080F14BFC823882343EA05436E
:1037300008314160036062B630BC70470830022235
:10374000EDE70522EBE708300422E8E7094A52F8E2
:10375000230038B1084A52F82300416042F8231090
:1037600062B6E9E742F82310034AF7E70000FF1FBB
:103770003C16FF1F0416FF1F1416FF1F2DE9F04F04
:10378000DFF814B3DFF814A387B044E0AD4F4FEA7D
:10379000930807EBC809013ED9F8042003F0080399
:1037A000F6B2A2F1080003F0FF04002B40F0038101
:1037B00057F838301B0C99B222F8081C002B00F087
:1037C000F180A14B22F8064C42F8044C53F8262015
:1037D000002A00F06C819D4D55F8263058609C4CB5
:1037E00045F8260034F81630194424F8161000F075
:1037F00075FC002800F05481964A974B19F0080F89
:1038000000F1080018BF1346C9F8040047F8383023
:1038100008238BF800309BF80040E4B260071BD50A
:103820008E4B1B78ABB18E490A7802F0FF032AB1A8
:10383000013BDBB20B70002B00F0B58389490A789D
:1038400002F0FF032AB1013BDBB20B70002B00F04A
:10385000F68004238BF8003004F0080303F0FF0225
:10386000002B00F0D5809AF80030DBB21E098DD114
:103870009C08744F57F8342007EBC401C2F383024D
:10388000013A49680C2A7ED8DFE802F081817D7D0B
:103890007D7D7D7D427D7D7D07000868724B734D87
:1038A00001936C4B4A68724E47F8343081B240F253
:1038B00081646D4B6A60286000220120A1423A6158
:1038C0001A60BA61307000F2F680B1F5D06F80F006
:1038D000E882B1F5817F00F0D38200F2D88180299F
:1038E00000F04D81822940F09282A988614B01F05D
:1038F0007F01042900F28C825F4C89000B44227006
:1039000062701A78930740F13883207002203AE100
:10391000554B01931A6862B3584B5949544E188855
:103920000C7896F800E04028054684F0010C28BF8A
:10393000402544F00204BEF1000F81F800C0A0EB66
:10394000050007EBC40C0CBF8821C82180B28EF0A3
:10395000010E41EA0541CCF80420188086F800E009
:103960002A4447F8341010B9402D18BF0022019B9B
:103970001A603E4B1A88B2F5A06F04D100219A78E4
:103980005970404B1A70404A0123137040E7374A80
:10399000158842F22100854200F052812D4A47F8F5
:1039A0003420F0E72B4A2C4B19F0080F18BF1346B0
:1039B00047F838302CE700F0B1FB344A344952F86C
:1039C0002630002B00F02D8158688C5D42F82600CF
:1039D00003F10802C9F80420032C05D8DFE804F03D
:1039E000120F150204228A551A8819F0080F0CBF0D
:1039F0008823C82343EA024347F8383008E7022205
:103A00008A55F1E703228A55EEE705228A55EBE74E
:103A1000E00700F17881210600F1A281A20706D516
:103A20001C4A1D4913780220DBB213700870E306AC
:103A300002D5194B10221A7007B0BDE8F08F00F0C4
:103A4000D9FC06E70000FF1FB015FF1F5C15FF1F24
:103A5000B816FF1FC8004000880040003816FF1F3E
:103A6000C115FF1F4016FF1F5815FF1F2416FF1F0B
:103A7000C015FF1FC02007403016FF1F6C15FF1F29
:103A80002C16FF1F98200740942007400416FF1FA4
:103A90003C16FF1F882007408020074090200740E9
:103AA000B74A47F83800137801331370B0E643F88B
:103AB0002600B44D93E642F22104A14200F0AD800D
:103AC00000F20E81B1F5086F00F05481B1F5106F6E
:103AD00040F09D81AC4AA9781170AC4D042402E0FD
:103AE0000134142C0CD057F834301906F8D505EBF6
:103AF000C40301345868083800F010FB142CF2D1CC
:103B0000A349A44BA44A0291A449A54C9D4D0394FA
:103B100005964FF0000988461C4616460495206815
:103B200028B1456800F0FAFA2846002DF9D10023A3
:103B30002360049B30681A46002342F8293028B1DC
:103B4000456800F0EBFA2846002DF9D100223260DA
:103B5000029A98F800301146002241F8042B039A8B
:103B60000291023B4FF0000122F81910032B00F2E2
:103B7000B481DFE813F0E201AE01E201AE01894C4D
:103B8000022022706270EA88824280F00D828649AB
:103B90000D78402A45F0020E944607EBCE0028BF70
:103BA0004FF0400C04EB0C0344600293CCEB02009A
:103BB0004FEA0C484FF001090022C82444EA0803E8
:103BC00085F0010447F83E3032700C70DFF8BCE13C
:103BD000764BDFF8D481002840F02081BCF1400F03
:103BE0001BD144F0020407EBC403029FDFF89CE101
:103BF0005F60002A40F02781020442F0880286F8C4
:103C000000900D7007444EF834203B46402804D104
:103C10000020674A019910800B60664A01231370E7
:103C2000B1E68B5D032B00F2248101A252F823F050
:103C30001138000011380000553D00005B3D0000C8
:103C4000928862B95C4ACD1D11F8013B02F8013F30
:103C50008D42F9D1594A1268862A00F0C98052492A
:103C6000524E0878327840F0020580F0010008706A
:103C700007EBC501002A4FF00000486082F0010206
:103C80000CBF8821C82147F83510327086E640F213
:103C90000232914240F0B080A98801F07F010429EE
:103CA00000F2B5806A88002A40F0B180444C890057
:103CB0000C448146217841F00201217000200290DD
:103CC00080468446044638490D7845F0020E07EBDD
:103CD000CE03B9F1000F5C600CBF8824C8246DE7E7
:103CE00042F22124A14240F08E80A988002940F0B0
:103CF0004281344B344A354C1B68AD7813608146A1
:103D00000A462570DAE72B49204B3148264EDFF86A
:103D1000B0C0304DDFF8D4E02F4F02240C702F4C90
:103D200018605C6098602E48D8601A619A610D2313
:103D300032702C4C8CF800302B4EFF232B7001205E
:103D40009F258EF800303A7033702570087007B0E8
:103D5000BDE8F08F00238B555AE501238B5557E5BD
:103D60001749224B80220D2008701A70A2077FF598
:103D70005EAE55E6044A0B4C1278227003E700BF92
:103D80002D16FF1F5C15FF1F3816FF1F0000FF1FB9
:103D90001416FF1FB015FF1F0416FF1F3C16FF1F50
:103DA000B816FF1F3016FF1F2C16FF1FC015FF1F70
:103DB0006C15FF1F94200740BF16FF1FC016FF1F82
:103DC000C0200740D014FF1FC816FF1F5016FF1F4A
:103DD0008800400088200740982007407015FF1F8A
:103DE000C415FF1F842007408C2007408020074017
:103DF000754A0F21117032E7B1F5A06F07D100228B
:103E00004FF001095AE742F221329142F7D06F4B4D
:103E10000F221A706E4A01231370B4E540287FF612
:103E2000E0AE44F002040EEBC401029E4E60AAB163
:103E300083F80090674A88F8005033464038403392
:103E40004EF83420E5E6029B86F80090020442F02A
:103E5000C8020D7003444EF83420D7E683F8009072
:103E6000029B5D4A88F80050403840334EF83420B9
:103E7000CFE619F0080F0CBF022303238B55C7E4CC
:103E8000A98801F07F010429C1D86A88002ABED11F
:103E90004E4C89000C448146217821F002012170AA
:103EA0000CE74E4A5468002CB1D06888B5F804E09D
:103EB00003E00C325468002CA9D013888342F8D157
:103EC00053887345F5D1000A03280CBF2078108968
:103ED00059E64FF0010388F8003009F10109B9F102
:103EE000040F04F1040406F1040608F101087FF44C
:103EF00016AE3B4B059E3B4DDFF8F080002018705E
:103F00004FF0010918F8013B05F8043B1A0719D4D2
:103F10004FEA890444F0020244F00304002347F806
:103F2000323047F83430304B9D4209F10109E9D174
:103F300096F8009089F00102C0E64FF0000388F87F
:103F40000030CAE700F0CAF818B307EB49134FEA8C
:103F5000890408305860204B47F8343000F0BEF830
:103F600068B144F0010307EBC30208305060194AFE
:103F700047F83320CEE78146A0E6022003E6184B3F
:103F800044F001021B7847F83200154A01331370E0
:103F9000C0E7134B124A1B784FEA8904013347F8F4
:103FA00034001370DAE700BE4028844628BF4FF083
:103FB000400C04EB0C03CCEB00004FEA0C480293DE
:103FC00000224FF001097EE6C115FF1FC020074007
:103FD00094200740C800400088004000D8800000BE
:103FE0002D16FF1FC4200740D4200740D4800000B6
:103FF0002DE9F04100F0EEFA002323491A4601EBC7
:10400000C30041F833200133142B42604FF0000409
:104010001D48F4D11D491E4A0B68DFF88C801D4FE6
:104020001D4D1E4EDFF884C0DFF884E043F480238A
:104030000B60136843F040731360C0F3072388F8E4
:10404000003001F52831C0F307433B70000EFF2319
:10405000CC3102F5C922287002F584728CF8003048
:104060000F4D8EF800300F483370012308F8083CDC
:1040700070260C704FF40014102107F82C3C2E70A1
:1040800004601170BDE8F0810000FF1F348004401F
:1040900000D80040B0200740B4200740102007405F
:1040A00035E400E004E100E09C2007408020074068
:1040B0008820074000F0A2B800F07AB800F054B8A9
:1040C00000F08EB800F06AB900F044B90846114615
:1040D00000F0B0B8084600F031B900BF72B60D4824
:1040E0000268B2FA82F30B2B10DC4FF00041D9408A
:1040F00022EA0102026062B6074803EBC303DB0059
:10410000C2180021C15010465160704762B60020AD
:10411000704700BF8408FF1F9803FF1F0D4B0E4A16
:10412000C31AA2FB03231B090B2B0CD80B4A1278D2
:1041300052B972B60A484FF00041026821FA03F3FF
:104140001A43026062B67047064A1278002AF0D01D
:10415000FFF790BA9803FF1F398EE3382D16FF1F23
:104160008408FF1F3816FF1F38B50F4D286878B137
:1041700043880288C118013393420C7A02D24380EB
:10418000204638BDFFF7CAFF002320462B6038BD0C
:10419000064B1B782BB10320FFF738FA2860002864
:1041A000E6D14FF0FF3038BD4C16FF1F3816FF1F09
:1041B00010B5094C206818B143881844007A10BD26
:1041C000064B1B782BB10320FFF720FA2060002854
:1041D000F2D14FF0FF3010BD4C16FF1F3816FF1FF5
:1041E000044B054A1B6890881BB11A885B88D31A58
:1041F000184470474C16FF1FB816FF1F0B4B1B7857
:104200009BB110B50A4C206848B1FFF787FF002327
:1042100003202360FFF7FAF930B1FFF77FFF032097
:10422000FFF7F4F90028F8D110BD70473816FF1FCA
:104230004C16FF1F2DE9F04FDFF8F89083B00122F4
:1042400089F80020019169B3DFF8EC80364F019EB8
:104250008346D8F80000B0B3344D4488C4F140011F
:10426000B14228BF314604EB010E00221FFA8EFE38
:104270002A70761AA0F802E000F1080251B1013C60
:10428000224459441BF8014B02F8014F8B45F9D1E8
:10429000B0F802E0BEF13F0F0BD8254A052111709E
:1042A000002ED6D10198002389F8003003B0BDE874
:1042B000F08F4022028001460420FFF71DFA002201
:1042C000C8F80020E9E73A782AB3184D4DF2E9041E
:1042D0004FF0010A07E0013C16D02A78A2B900F09D
:1042E000ADF83A78BAB10420FFF7AEF90728F2D852
:1042F00089F800A0FFF7F2FEC8F800000028ACD152
:104300000C4B013C1870E8D101234FF0FF302B70AB
:1043100003B0BDE8F08F00234FF0FF3089F8003084
:1043200003B0BDE8F08F00BF3816FF1F4816FF1F0F
:104330004016FF1F4116FF1F4416FF1F00B583B034
:1043400002AB012103F8010D1846FFF773FF03B01C
:104350005DF804FB38B50E4D0E4C28680123237020
:1043600028B1408800232370C0F1400038BD0A4BBB
:104370001B7813B90020207038BD0420FFF764F9C2
:104380000728F7D8FFF7AAFE28600028E9D1F1E74F
:104390004416FF1F4116FF1F3816FF1FF8B5114BBB
:1043A0001B788BB1104E114D346801272F7064B10A
:1043B0000F4A638800271770214623800420FFF7E7
:1043C0009BF9376000232B70F8BDFFF787FE084B81
:1043D00028B1014604201C70FFF78EF9F2E71F7028
:1043E000F0E700BF3816FF1F4416FF1F4116FF1FDE
:1043F0004016FF1F38B50E4B1B7873B90D4C216862
:1044000061B103F0FF054B880B800420FFF774F9BE
:10441000256038BD084B01221A7038BDFFF75EFEDB
:104420000028F7D00146BDE838400420FFF764B902
:104430004116FF1F4416FF1F4016FF1F2DE9F843CA
:10444000314E337893B1314F3A787AB90122D90796
:104450003A7036D49A0719D400225B073A7005D512
:104460002B4B1A6812B1EFF305820AB1BDE8F8834D
:10447000EFF3108172B6186818B1264C2278002A22
:104480002ED00029F2D162B6BDE8F883DFF8908023
:1044900098F80020002ADFD0DFF88890002405E09B
:1044A000013498F80030E4B2A34212D959F82450EC
:1044B0002B6828461B6998470028F1D02B6998473C
:1044C000EEE7FFF78DFEC8B9134B1B781BB93378A5
:1044D000C0E73378C0E7337803F0FE033370B9E701
:1044E00045691D60012323705DB1AA6101B962B6FF
:1044F00000254577836898472570B7E700F068F88E
:10450000E2E7064B1D60F1E78808FF1F5116FF1F09
:104510006016FF1F6416FF1F8908FF1F5C16FF1F30
:104520008016FF1F6816FF1F70B5EFF3108272B67A
:104530000C4C206880B10C4E00254369236073B198
:104540009D6102B962B6457783689847EFF31082A0
:1045500072B620680028F0D102B962B670BD33602F
:10456000EFE700BF5416FF1F5816FF1FFFF7DCBF11
:10457000024A136801331360704700BFD014FF1F55
:1045800070B4104E104C3578D5B12368984215D0D0
:10459000691EC9B204EB8101234603E053F8042FDE
:1045A00082420BD08B42F9D16A1CD2B2074944F83F
:1045B00025000B78327043F002030B7070BC70471B
:1045C0000122F3E78016FF1F6816FF1F8808FF1FF0
:1045D000704700BF72B6184A184B19491160702213
:1045E00080211A701A46197013781B06FCD510B575
:1045F000144B84B0186862B6134B144C984298BFA1
:1046000000EB800001A998BF40000A22FEF754F990
:1046100001A92046002311F8012B01333AB10A2BDE
:1046200020F8022FF7D11623237004B010BD5B00D1
:10463000DBB2237004B010BD040002400000024051
:10464000000007410C0002407F9698001809FF1FE8
:104650000B460146184602F0E3BC00BFFFFFFFFF18
:1046600008B551EC100B04A3D3E9002302F0B0F914
:1046700041EC100B08BD00BF00000020DCA54C4041
:1046800008B551EC100B04A3D3E9002302F0A0F904
:1046900041EC100B08BD00BF000000A046DF913FB9
:1046A00000B52DED028B10EE900A85B0B0EE608A59
:1046B0008DED030A02F038F99DED030ACDE9000102
:1046C00010EE100A02F030F99DED001B41EC100BCA
:1046D00000F0C4F851EC100B02F052FC00EE100A8E
:1046E000B5EEC00AF1EE10FA48BF38EE000A05B088
:1046F000BDEC028B5DF804FB704700BF10B50446AB
:1047000080E80E00C8B20121FEF70AFB20790121E2
:10471000FEF706FB207A0121BDE81040FEF700BB42
:1047200038B50C1E05461FDD01210078FEF7E4FABE
:1047300000212879FEF7E0FA07EE904A9FED157AFE
:10474000287AF8EEE77ABDE8384067EE877AF5EE2A
:10475000C07AF1EE10FAD8BFF1EE677AFDEEE77A93
:1047600017EE901AFEF744B90DD101210078FEF73B
:10477000C3FA28790121FEF7BFFA2146287ABDE85D
:104780003840FEF735B900210078FEF7B5FA01216F
:10479000CFE700BF3333234000B551EC100B2C4A58
:1047A00021F00043934285B020DD2A4A934209DD7F
:1047B00010EE102A0B4601F057FF41EC100B05B02C
:1047C0005DF804FB684600F047FB00F00300012899
:1047D00028D0022815D060B301209DED021B9DED6D
:1047E000000B01F085FB51EC100BE6E79FED161B6B
:1047F00000F02AFE51EC100B41EC100B05B05DF8F7
:1048000004FB9DED021B9DED000B00F01DFE53EC23
:10481000102B10EE100A03F1004141EC100B05B013
:104820005DF804FB9DED021B9DED000B01F060FBAC
:10483000EDE79DED021B9DED000B00F005FE51EC38
:10484000100BBAE7AFF3008000000000000000008A
:10485000FB21E93FFFFFEF7F00F0CEB82DE9F043E9
:104860002DED028B8BB057EC106B55EC114B00F01B
:10487000B9F92E4BB0EE408AF0EE608A93F90080D1
:10488000B8F1FF3F31D022462B462046294602F0A0
:1048900039FB50BB32463B463046394602F032FBCC
:1048A000814610BB002200232046294602F0F8FA78
:1048B000D8B11F4BCDF820900122CDE90267CDE998
:1048C00004458DE80C00B8F1000F17D1CDE906675B
:1048D000684601F02DFEE0B1089B0BBB9DED060B79
:1048E0000BB0BDEC028BBDE8F083B0EE480AF0EEF1
:1048F000680A0BB0BDEC028BBDE8F08300220023F8
:104900001046194602F08EF9B8F1020FCDE9060102
:10491000DED102F08BFB21230360089B002BDDD04E
:1049200002F084FB089B0360D8E700BF2E09FF1F3D
:104930002C8100002DE9F0432DED028B8BB055EC5E
:10494000104B00F0AFFC294BB0EE408AF0EE608ACD
:1049500093F90060731C12D022462B46204629464C
:1049600002F0D0FA074650B94FF000084FF00009A6
:104970002046294642464B4602F09CFA40B9B0EE2A
:10498000480AF0EE680A0BB0BDEC028BBDE8F0837C
:10499000174B08970122CDE90445CDE902458DE882
:1049A0000C00B6B142464B464046494602F03AF941
:1049B000022ECDE906010ED102F038FB212303605F
:1049C000089B73B99DED060B0BB0BDEC028BBDE8E7
:1049D000F083CDE90689684601F0AAFD0028EFD1F1
:1049E000EAE702F023FB089B0360EBE72E09FF1FB9
:1049F00034810000FFFFFFFF51EC110B43422DE912
:104A0000F047034321F00048754F48EAD373BB4297
:104A100055EC104B49D86342234325F0004A4AEA3B
:104A2000D373BB42A94640D801F1404303F580133C
:104A300003438E4650D08E1706F0020654EA0A034E
:104A400046EAD57639D050EA08033ED0B84555D06D
:104A5000BA453AD0C8EB0A084FEA2858B8F13C0FDB
:104A600040DC002970DB02460B462046294602F056
:104A7000D9F841EC100B01F0C3FC01F005FB51EC3F
:104A8000100B012E5AD0022E48D0002E42D03EA349
:104A9000D3E9002301F0E8FD3DA3D3E9002301F0B1
:104AA000E3FD41EC100BBDE8F08722462B4601F0F8
:104AB000DDFD41EC100BBDE8F087022E16D0032E71
:104AC0000ED19FED350BBDE8F087B9F1000F11DB7A
:104AD0009FED330BBDE8F087BDE8F04701F0D4BA95
:104AE000BDE8F0872EA1D1E90001CAE79FED280BB0
:104AF000BDE8F0879FED2C0BBDE8F087C24529D0BB
:104B0000022EF3D0032EDCD0012E2DD09FED280BEA
:104B1000BDE8F08741EC100BBDE8F0871AA3D3E99C
:104B2000002301F0A1FD02460B4619A1D1E90001C5
:104B300001F09AFD41EC100BBDE8F08701F1004156
:104B400041EC100BBDE8F08718F13C0F8BDA002028
:104B5000002196E7022E13D0032E0DD0012E07D090
:104B60009FED150BBDE8F0879FED150BBDE8F087B5
:104B70009FED150BBDE8F0879FED150BBDE8F087A5
:104B80009FED150BBDE8F087075C143326A6A13C0A
:104B9000182D4454FB210940182D4454FB2109C011
:104BA000182D4454FB21F93F182D4454FB21F9BF23
:104BB0000000000000000000182D4454FB21E93FD4
:104BC0000000000000000080182D4454FB21E9BFC4
:104BD000D221337F7CD902C0D221337F7CD90240DD
:104BE0000000F07F2DE9F84F53EC112B23F0004922
:104BF00052EA090055EC104B25D005F000468F48CD
:104C000085EA060B83451EDC50421043DFF844C2A0
:104C100049EAD070604511EE108A14D8CB451F4682
:104C200010EE10AA11EE10EA10EE101A17DC28DBB5
:104C3000944226D313D1824BF60F03EBC60393EDB8
:104C4000000BBDE8F88F2046294601F0C1FE024660
:104C50000B4601F0E7FF41EC100BBDE8F88FBBF508
:104C6000801F12DABBF1000F40F0A780BAF1000FED
:104C7000534674480DDD5B00002B00F1FF30FADC79
:104C800007E045EC104BBDE8F88F4FEA2B50A0F23F
:104C9000FF30B9F5801F0FDAB9F1000F40F0A7809F
:104CA000B8F1000F4346DFF89CC109DD5B00002B23
:104CB0000CF1FF3CFADC03E04FEA295CACF2FF3C6C
:104CC000614B98425BDBCBF3130343F480135E4AE2
:104CD000944563DBC7F3130545F48015CCEB000066
:104CE00007E052EA040313D0E30F03EB4203610031
:104CF0000138CEEB01045A1B90B1714538BF02F167
:104D0000FF32002AEDDACA0F02EB43034900EFE756
:104D10004B4BF60F03EBC60696ED000BBDE8F88F84
:104D20007145154638BF02F1FF35002DACBFCEEB03
:104D300001011D4655EA0103EAD0444A954208DCC8
:104D4000CB0F03EB450595420CF1FF3C4FEA4101C7
:104D5000F6DD3D4B9C4554DA3B4ACCEB0202142A6B
:104D60005BDCC2F1200305FA03F3D1400B4315418C
:104D700045EA0601184641EC100BBDE8F88F3249B0
:104D8000091A1F292DDCC1F120030BFA01FB2AFAB5
:104D900003F343EA0B030AFA01F198E72A4CCCEB40
:104DA00004041F2C15DCC4F1200209FA04F528FACA
:104DB00002F2154308FA04FE90E74FEACB23002BDA
:104DC00021487FF766AF5B00002B00F1FF30FADC73
:104DD0005FE71F4DCCEB050508FA05F54FF0000E17
:104DE0007CE71B4B1B1A0AFA03F300216FE7DFF87D
:104DF00058C04FEAC9235B00002B0CF1FF3CFADCE2
:104E00005EE7A5F580152E430CF2FF3C46EA0C53F5
:104E10000A4643EC102BBDE8F88F1F2A07DCC2F1CD
:104E200020039D40D14045EA01033546A0E7084BE9
:104E3000CCEB030345FA03F3354699E7FFFFEF7F19
:104E400040810000EDFBFFFF02FCFFFFFFFF0F00B2
:104E5000E2FBFFFF0000F07F2DE9F04F53EC102B39
:104E6000974923F0004B8B458FB040F387809549DD
:104E70008B451C46824629DC002C194610EE100A90
:104E800085A3D3E9002340F3A58101F0EDFB8E4B10
:104E90009B4504460D4600F0878081A3D3E900239B
:104EA00001F0E2FB02460B46CAE9002320462946F0
:104EB00001F0DAFB7AA3D3E9002301F0D5FB012549
:104EC000CAE9020128460FB0BDE8F08F7F498B4543
:104ED00040F387807E498B455BDC4FEA2B55A5F27A
:104EE0001645ABEB05571046394610EE106A02F036
:104EF0001FF801F007FD8046894642464B46304682
:104F00003946CDE9088901F0AFFB0022714B01F071
:104F10005FFD8946804602F00BF801F0F3FC06467F
:104F20000F4632463B4640464946CDE90A6701F006
:104F30009BFB0022674B01F04BFD00220023CDE9D3
:104F40000C0101F0ADFF002800F070810023304615
:104F50003946002201F0A4FF002814BF01230223D8
:104F60005D4A0192022100912A46514608A800F0AC
:104F7000AFFB002CC0F24C81054606E080ED000B33
:104F800000250024C0E90245002528460FB0BDE8F1
:104F9000F08F10EE100A194601F066FB0025CAE9F1
:104FA0000201CAE90001F0E73FA3D3E9002301F0C1
:104FB0005BFB3FA3D3E900230D46044601F054FBFD
:104FC00002460B46CAE900232946204601F04CFB65
:104FD00037A3D3E9002301F047FB0125CAE9020109
:104FE000D3E701F00DFA57EC106B10EE100A32A364
:104FF000D3E90023394601F0EBFC0022374B01F0E6
:1050000035FB01F095FF054601F07CFC22A3D3E9B6
:105010000023CDE9040101F0DBFC02460B463046DB
:10502000394601F021FB1EA3D3E9002380468946BF
:10503000DDE9040101F0CCFC1F2DCDE9020151DCBA
:10504000274B6A1E53F822309B454BD002460B4635
:105050004046494601F008FB06460F46CAE900678C
:1050600032463B464046494601F0FEFADDE902235E
:1050700001F0FAFA002CCAE9020186DA07F10044CD
:1050800001F100436D42CAF80060CAF80440CAF852
:105090000800CAF80C3078E700004054FB21F93FC3
:1050A0003163621A61B4D03D0000601A61B4D03D32
:1050B0007370032E8A19A33B83C8C96D305FE43F28
:1050C000FB21E93F7BD90240FB21F93FFB2139411C
:1050D000FFFFEF7F00007041D08100000000E03F43
:1050E00050810000DDE902234046494601F0BCFA48
:1050F0004FEA2B5BC1F30A53C3EB0B0306460F4683
:10510000102BCAE90067ABDD5DA3D3E90023DDE91D
:10511000040101F05DFC06460F4602460B46404680
:10512000494601F0A1FACDE9060102460B46404688
:10513000494601F099FA32463B4601F095FA52A3EE
:10514000D3E9002306460F46DDE9040101F040FCE7
:1051500032463B4601F088FA0B46CDE90201024691
:10516000DDE9060101F080FAC1F30A53C3EB0B0B32
:1051700006460F46BBF1310FCAE9006776DD45A34D
:10518000D3E90023DDE9040101F022FC06460F46C5
:1051900002460B46DDE9060101F066FA02460B46BF
:1051A00080468946DDE9060101F05EFA32463B465B
:1051B00001F05AFA39A3D3E9002306460F46DDE988
:1051C000040101F005FC32463B4601F04DFACDE901
:1051D00002013BE701F04AFA2D4B9B4504460D4680
:1051E00026D025A3D3E9002301F040FA02460B465E
:1051F000CAE900232946204601F036FA1EA3D3E966
:10520000002301F033FA4FF0FF35CAE90201BCE692
:10521000DAF80420DAF80C3002F1004203F100431E
:105220004542CAF80420CAF80C30AEE6032397E6DC
:1052300013A3D3E9002301F019FA13A3D3E9002340
:105240000D46044601F012FA02460B46CAE9002355
:105250002946204601F008FA0BA3D3E9002301F008
:1052600005FA4FF0FF35CAE902018EE6DDE906894D
:10527000F6E600BFAFF300803163621A61B4D03D3F
:105280000000601A61B4D03D7370032E8A19A33BED
:10529000FB21F93F0000002E8A19A33BC1492025BC
:1052A0009A837B392DE9F041654955EC104B0E4648
:1052B0002940B14200F09780002D2B4610EE102AB5
:1052C00074DD2F157FD0A7F2FF37C3F31303F9075F
:1052D00043F4801365D403EBD27100260B447F1096
:1052E0005200B64616204FF400110EEB01049C420A
:1052F0004FEAD2754FEA420203DC1B1B04EB010E9E
:105300000E44013805EB43034FEA5101EDD18446C9
:1053100020244FF0004109E020D003EBD275013C7E
:105320004FEA51012B444FEA420220D09E4501EB47
:105330000C05F1DA002D05EB010C09DBF046954276
:10534000CEEB030300D9013B521B0844C646E4E7F9
:10535000BCF1000FF2DB0EF10108F0E795421ED818
:10536000002D05EB010C50DB98460023ECE71343BE
:1053700004D0421C4DD000F00103184440087110C5
:10538000F30701F17F5101F5001148BF40F00040E3
:1053900001EB0753024643EC102BBDE8F081734646
:1053A000BBE75B0003EBD273520094E725F00041AA
:1053B000214328D0ADBB2F46D30A153F5205002B01
:1053C000FAD0DD0228D4002100E001465B00DC02B7
:1053D00001F10100F9D5C0F1200422FA04F42343BD
:1053E0007F1A82406FE710EE102A2B4610EE100A4B
:1053F000294601F0EDFA22462B4601F037F941EC3F
:10540000100BBDE8F081BDE8F081BCF1000FA2DA1D
:10541000AAE701362046B2E720244FF0FF310020F2
:10542000DBE710EE102A2B462046294601F01CF936
:1054300002460B4601F0F6FB41EC100BBDE8F08193
:105440000000F07FFFFFFFFF2DE9F04F57EC106BDE
:105450002DED028BB0EE418AF0EE618A27F0004913
:10546000B9F1795F83B072DA10EE100A394601F0B3
:105470005FFD002800F0F68032463B463046394654
:1054800001F0A6FA7CA3D3E9002304460D4601F0FF
:105490009FFA7BA3D3E9002301F0E8F822462B46CC
:1054A00001F096FA78A3D3E9002301F0DDF8224653
:1054B0002B4601F08DFA76A3D3E9002301F0D6F84C
:1054C00022462B4601F084FA73A3D3E9002301F0AE
:1054D000CBF822462B4601F07BFA71A3D3E90023D7
:1054E00001F0C4F822462B4601F072FA82468B4640
:1054F0000022714B2046294601F06AFA5246804646
:1055000089465B462046294601F062FA53EC182B87
:1055100004460D463046394601F05AFA02460B461B
:105520002046294601F0A0F802460B46404649466F
:1055300001F09AF802460B460020604901F094F809
:1055400041EC100B03B0BDEC028BBDE8F08F10EE08
:10555000102A10EE100A3B46394601F039FA46A3EC
:10556000D3E9002304460D4601F032FA44A3D3E9FF
:10557000002301F07BF822462B4601F029FA42A3D2
:10558000D3E9002301F070F822462B4601F020FAFF
:105590003FA3D3E9002301F069F822462B4601F02E
:1055A00017FA3DA3D3E9002301F05EF822462B460B
:1055B00001F00EFA3AA3D3E9002301F057F82B4685
:1055C000224601F005FA3E4B994582468B468FDD17
:1055D0003C4B99453DDC0022A9F5001300203749DA
:1055E0009046994601F040F8CDE900010022324B87
:1055F0002046294601F0ECF942464B4601F034F8CA
:105600005246804689465B462046294601F0E0F92D
:1056100053EC182B04460D463046394601F0D8F9B4
:1056200002460B462046294601F01EF802460B466C
:105630004046494601F018F802460B46DDE90001F4
:1056400001F012F841EC100B03B0BDEC028BBDE889
:10565000F08F9FED157B4FF000088DED007BDFF89C
:105660006890C3E79FED120B03B0BDEC028BBDE861
:10567000F08F00BFAFF30080D43888BEE9FAA8BD30
:10568000C4B1B4BD9EEE213EAD529C804F7E923E91
:105690009015CB19A001FA3E7751C1166CC1563F47
:1056A0004C5555555555A53F000000000000E73FFB
:1056B000000000000000F03F0000E03F0000F03F6D
:1056C0003233D33F0000E93F0000D23FFFFFFFFF2E
:1056D0002DE9F04FADF51B7D814CA49E814D54F812
:1056E000264007942646D41E85FB0475E417C4EBB8
:1056F000A50424EAE4741D460A93631CA3EB830308
:10570000013D02EBC30306932B460B940095651BEA
:10571000F4180390089116D42C44013422AEA59FAE
:1057200008E057F8250001F0EDF80135A542E6E85C
:10573000020108D0002DF4DA013500200021A54235
:10574000E6E80201F6D1079B002BC0F2C283079B5B
:10575000039ADDF800A003F1010B0A9B0DF5E47933
:10576000DB00049309EBCB0B02EB0308009B002B3F
:10577000C0F2928122AB03EBCA05039C08350026D8
:10578000002775E90223F4E8020101F021F902463D
:105790000B463046394600F069FF444506460F4641
:1057A000EFD1E9E80267D9450AF1010ADED107998C
:1057B0000498039C049101F18043023B9B00204428
:1057C0001A1D83460EA8024403440D920C93049ABA
:1057D0009AA901EBC203002A53E9284529DD0DF5FA
:1057E000E47A0AEBC2080DF1340900223E4B204650
:1057F000294601F0EDF801F09BFB01F083F800224F
:105800003A4B06460F4601F0E3F802460B462046A7
:10581000294600F029FF01F08BFB78E9022349F8C3
:10582000040F3946304600F021FFD04504460D46AE
:10583000DBD1DDF8189045EC104B484600F07CFEBB
:1058400055EC104B00224FF07F5310EE100A294602
:1058500001F0BEF841EC100B00F0DAFD002251EC33
:10586000100B234B01F0B4F802460B4620462946A4
:1058700000F0FAFE0D46044601F05AFB804601F0A6
:1058800041F80B4602462946204600F0EDFE4B4605
:10589000002B06460F4640F3E580049A0EA9013A14
:1058A000C9F1180351F8225045FA03F101FA03F344
:1058B0000EA8EB1A40F82230C9F11705884443FAC4
:1058C00005F5002D41DD049B002B08F1010840F394
:1058D000C982002214460DA90498AE4612E000BF0A
:1058E000D8820000ABAAAA2A0000703E00007041D6
:1058F00000002040C3F180750BB10D60012401321E
:1059000090420DDD51F8043F002CF3D0C3F1FF139A
:10591000013203F57F4390420B604FF00104F1DC4C
:105920007546069B002B0EDD012B00F0A380022B99
:1059300009D1049B5A1E0EAB0EA953F82230C3F3B3
:10594000150341F82230022D74D000220023304686
:10595000394601F0A5FA002800F04982049A079B15
:10596000501E834210DC02F18043013B0EAA0D9CC5
:1059700002EB8303002253F80419A34242EA010216
:10598000F9D1002A40F0A480079B0EAA013B52F8EF
:105990002330002B40F064820C9A012352F8041942
:1059A00001330029FAD0049AD31802F1010A9A456A
:1059B00009933CDC0B9B0A9A09990AEB0309049BA7
:1059C000984690448B1809F18049A59A09F1FF394E
:1059D00002EB890922AA02EBC303049372AB02EB28
:1059E000C80803EBCA0A59F8040F00F08BFF009BAC
:1059F000002BE8E802014FF000064FF0000711DB32
:105A0000039C454675E90223F4E8020100F0E0FF3B
:105A100002460B463046394600F028FE5C450646F5
:105A20000F46EFD1049B9845EAE80267DBD1099B5A
:105A30000493CCE632463B460020B34900F014FE06
:105A400006460F46002C80D006989FEDAB0B00F069
:105A500073FD3046394653EC102B00F005FE064628
:105A60000F4672E711D1049B0EAA013B52F8235056
:105A7000ED1526E7049B5A1E0EAB0EA953F82230F3
:105A8000C3F3160341F822305DE700229F4B01F07B
:105A900025FA58B9054658E700260027E9E80267C5
:105AA000D9450AF1010A7FF461AE80E6049B002B20
:105AB00008F10108C8BF02253FF70BAF32463B464D
:105AC0000020914900F0D0FD022506460F463CE734
:105AD0000EA9CDF8248051F820300699009018398D
